{
  "_format": "hh-sol-artifact-1",
  "contractName": "Heritage",
  "sourceName": "contracts/Heritage.sol",
  "abi": [
    {
      "anonymous": false,
      "inputs": [
        {
          "indexed": false,
          "internalType": "address",
          "name": "_testator",
          "type": "address"
        },
        {
          "indexed": false,
          "internalType": "address",
          "name": "_inheritor",
          "type": "address"
        },
        {
          "indexed": false,
          "internalType": "uint256",
          "name": "_balance",
          "type": "uint256"
        }
      ],
      "name": "Inherited",
      "type": "event"
    },
    {
      "anonymous": false,
      "inputs": [
        {
          "indexed": false,
          "internalType": "address",
          "name": "inheritor",
          "type": "address"
        },
        {
          "indexed": false,
          "internalType": "enum Heritage.Status",
          "name": "status",
          "type": "uint8"
        },
        {
          "indexed": false,
          "internalType": "uint256",
          "name": "proofOfTimestamp",
          "type": "uint256"
        },
        {
          "indexed": false,
          "internalType": "address",
          "name": "token",
          "type": "address"
        },
        {
          "indexed": false,
          "internalType": "uint16",
          "name": "maxDays",
          "type": "uint16"
        }
      ],
      "name": "NewTestator",
      "type": "event"
    },
    {
      "anonymous": false,
      "inputs": [
        {
          "indexed": true,
          "internalType": "address",
          "name": "previousOwner",
          "type": "address"
        },
        {
          "indexed": true,
          "internalType": "address",
          "name": "newOwner",
          "type": "address"
        }
      ],
      "name": "OwnershipTransferred",
      "type": "event"
    },
    {
      "anonymous": false,
      "inputs": [
        {
          "indexed": false,
          "internalType": "address",
          "name": "testator",
          "type": "address"
        },
        {
          "indexed": false,
          "internalType": "uint256",
          "name": "timestamp",
          "type": "uint256"
        }
      ],
      "name": "ProofUpdated",
      "type": "event"
    },
    {
      "anonymous": false,
      "inputs": [
        {
          "indexed": false,
          "internalType": "address",
          "name": "inheritor",
          "type": "address"
        },
        {
          "indexed": false,
          "internalType": "enum Heritage.Status",
          "name": "status",
          "type": "uint8"
        },
        {
          "indexed": false,
          "internalType": "uint256",
          "name": "proofOfTimestamp",
          "type": "uint256"
        },
        {
          "indexed": false,
          "internalType": "address",
          "name": "token",
          "type": "address"
        },
        {
          "indexed": false,
          "internalType": "uint16",
          "name": "maxDays",
          "type": "uint16"
        }
      ],
      "name": "Revoke",
      "type": "event"
    },
    {
      "inputs": [
        {
          "internalType": "address",
          "name": "_inheritor",
          "type": "address"
        },
        {
          "internalType": "address",
          "name": "_token",
          "type": "address"
        },
        {
          "internalType": "uint16",
          "name": "_maxDays",
          "type": "uint16"
        }
      ],
      "name": "addTestator",
      "outputs": [],
      "stateMutability": "nonpayable",
      "type": "function"
    },
    {
      "inputs": [
        {
          "internalType": "address",
          "name": "_testatorAddress",
          "type": "address"
        }
      ],
      "name": "getTestator",
      "outputs": [
        {
          "internalType": "address",
          "name": "",
          "type": "address"
        },
        {
          "internalType": "enum Heritage.Status",
          "name": "",
          "type": "uint8"
        },
        {
          "internalType": "uint256",
          "name": "",
          "type": "uint256"
        },
        {
          "internalType": "address",
          "name": "",
          "type": "address"
        },
        {
          "internalType": "uint16",
          "name": "",
          "type": "uint16"
        }
      ],
      "stateMutability": "view",
      "type": "function"
    },
    {
      "inputs": [],
      "name": "inherit",
      "outputs": [],
      "stateMutability": "nonpayable",
      "type": "function"
    },
    {
      "inputs": [],
      "name": "owner",
      "outputs": [
        {
          "internalType": "address",
          "name": "",
          "type": "address"
        }
      ],
      "stateMutability": "view",
      "type": "function"
    },
    {
      "inputs": [],
      "name": "renounceOwnership",
      "outputs": [],
      "stateMutability": "nonpayable",
      "type": "function"
    },
    {
      "inputs": [],
      "name": "revoke",
      "outputs": [],
      "stateMutability": "nonpayable",
      "type": "function"
    },
    {
      "inputs": [
        {
          "internalType": "address",
          "name": "newOwner",
          "type": "address"
        }
      ],
      "name": "transferOwnership",
      "outputs": [],
      "stateMutability": "nonpayable",
      "type": "function"
    },
    {
      "inputs": [],
      "name": "updateProof",
      "outputs": [
        {
          "internalType": "bool",
          "name": "",
          "type": "bool"
        }
      ],
      "stateMutability": "nonpayable",
      "type": "function"
    }
  ],
  "bytecode": "0x608060405234801561001057600080fd5b5061002d61002261003260201b60201c565b61003a60201b60201c565b6100fe565b600033905090565b60008060009054906101000a900473ffffffffffffffffffffffffffffffffffffffff169050816000806101000a81548173ffffffffffffffffffffffffffffffffffffffff021916908373ffffffffffffffffffffffffffffffffffffffff1602179055508173ffffffffffffffffffffffffffffffffffffffff168173ffffffffffffffffffffffffffffffffffffffff167f8be0079c531659141344cd1fd0a4f28419497f9722a3daafe3b4186f6b6457e060405160405180910390a35050565b612069806200010e6000396000f3fe608060405234801561001057600080fd5b50600436106100885760003560e01c80638da5cb5b1161005b5780638da5cb5b146100f1578063aef09e3a1461010f578063b6549f751461012d578063f2fde38b1461013757610088565b806307b9eb291461008d578063116a25bb146100c15780632b445d78146100dd578063715018a6146100e7575b600080fd5b6100a760048036038101906100a291906116c8565b610153565b6040516100b89594939291906117b1565b60405180910390f35b6100db60048036038101906100d69190611830565b61035a565b005b6100e56107b1565b005b6100ef610cf8565b005b6100f9610d80565b6040516101069190611883565b60405180910390f35b610117610da9565b60405161012491906118b9565b60405180910390f35b61013561103d565b005b610151600480360381019061014c91906116c8565b6114a1565b005b600080600080600080600160008873ffffffffffffffffffffffffffffffffffffffff1673ffffffffffffffffffffffffffffffffffffffff1681526020019081526020016000206040518060a00160405290816000820160009054906101000a900473ffffffffffffffffffffffffffffffffffffffff1673ffffffffffffffffffffffffffffffffffffffff1673ffffffffffffffffffffffffffffffffffffffff1681526020016000820160149054906101000a900460ff16600281111561022157610220611704565b5b600281111561023357610232611704565b5b8152602001600182015481526020016002820160009054906101000a900473ffffffffffffffffffffffffffffffffffffffff1673ffffffffffffffffffffffffffffffffffffffff1673ffffffffffffffffffffffffffffffffffffffff1681526020016002820160149054906101000a900461ffff1661ffff1661ffff16815250509050600073ffffffffffffffffffffffffffffffffffffffff16816000015173ffffffffffffffffffffffffffffffffffffffff16141561032d576040517f08c379a000000000000000000000000000000000000000000000000000000000815260040161032490611931565b60405180910390fd5b80600001518160200151826040015183606001518460800151955095509550955095505091939590929450565b8060008161ffff16116103a2576040517f08c379a0000000000000000000000000000000000000000000000000000000008152600401610399906119c3565b60405180910390fd5b600073ffffffffffffffffffffffffffffffffffffffff16600160003373ffffffffffffffffffffffffffffffffffffffff1673ffffffffffffffffffffffffffffffffffffffff16815260200190815260200160002060000160009054906101000a900473ffffffffffffffffffffffffffffffffffffffff1673ffffffffffffffffffffffffffffffffffffffff1614610473576040517f08c379a000000000000000000000000000000000000000000000000000000000815260040161046a90611a55565b60405180910390fd5b600083905060008173ffffffffffffffffffffffffffffffffffffffff1663dd62ed3e33306040518363ffffffff1660e01b81526004016104b5929190611a75565b602060405180830381865afa1580156104d2573d6000803e3d6000fd5b505050506040513d601f19601f820116820180604052508101906104f69190611aca565b90506000811161053b576040517f08c379a000000000000000000000000000000000000000000000000000000000815260040161053290611b69565b60405180910390fd5b60006040518060a001604052808873ffffffffffffffffffffffffffffffffffffffff1681526020016000600281111561057857610577611704565b5b81526020014281526020018773ffffffffffffffffffffffffffffffffffffffff1681526020018661ffff16815250905080600160003373ffffffffffffffffffffffffffffffffffffffff1673ffffffffffffffffffffffffffffffffffffffff16815260200190815260200160002060008201518160000160006101000a81548173ffffffffffffffffffffffffffffffffffffffff021916908373ffffffffffffffffffffffffffffffffffffffff16021790555060208201518160000160146101000a81548160ff0219169083600281111561065b5761065a611704565b5b02179055506040820151816001015560608201518160020160006101000a81548173ffffffffffffffffffffffffffffffffffffffff021916908373ffffffffffffffffffffffffffffffffffffffff16021790555060808201518160020160146101000a81548161ffff021916908361ffff16021790555090505033600260008973ffffffffffffffffffffffffffffffffffffffff1673ffffffffffffffffffffffffffffffffffffffff16815260200190815260200160002060006101000a81548173ffffffffffffffffffffffffffffffffffffffff021916908373ffffffffffffffffffffffffffffffffffffffff1602179055507fa77ddd5831303f2769e5556d11f116ee3b8df0df62341b8c0a0f7326ff5ebef6816000015182602001518360400151846060015185608001516040516107a09594939291906117b1565b60405180910390a150505050505050565b600073ffffffffffffffffffffffffffffffffffffffff16600260003373ffffffffffffffffffffffffffffffffffffffff1673ffffffffffffffffffffffffffffffffffffffff16815260200190815260200160002060009054906101000a900473ffffffffffffffffffffffffffffffffffffffff1673ffffffffffffffffffffffffffffffffffffffff161415610880576040517f08c379a000000000000000000000000000000000000000000000000000000000815260040161087790611bfb565b60405180910390fd5b600060016000600260003373ffffffffffffffffffffffffffffffffffffffff1673ffffffffffffffffffffffffffffffffffffffff16815260200190815260200160002060009054906101000a900473ffffffffffffffffffffffffffffffffffffffff1673ffffffffffffffffffffffffffffffffffffffff1673ffffffffffffffffffffffffffffffffffffffff16815260200190815260200160002090506000429050620151808260020160149054906101000a900461ffff1661ffff1661094c9190611c59565b62ffffff1682600101546109609190611c96565b8110156109a2576040517f08c379a000000000000000000000000000000000000000000000000000000000815260040161099990611d38565b60405180910390fd5b600060016000600260003373ffffffffffffffffffffffffffffffffffffffff1673ffffffffffffffffffffffffffffffffffffffff16815260200190815260200160002060009054906101000a900473ffffffffffffffffffffffffffffffffffffffff1673ffffffffffffffffffffffffffffffffffffffff1673ffffffffffffffffffffffffffffffffffffffff168152602001908152602001600020905060008160020160009054906101000a900473ffffffffffffffffffffffffffffffffffffffff16905060008173ffffffffffffffffffffffffffffffffffffffff166370a08231600260003373ffffffffffffffffffffffffffffffffffffffff1673ffffffffffffffffffffffffffffffffffffffff16815260200190815260200160002060009054906101000a900473ffffffffffffffffffffffffffffffffffffffff166040518263ffffffff1660e01b8152600401610b079190611883565b602060405180830381865afa158015610b24573d6000803e3d6000fd5b505050506040513d601f19601f82011682018060405250810190610b489190611aca565b90508173ffffffffffffffffffffffffffffffffffffffff166323b872dd600260003373ffffffffffffffffffffffffffffffffffffffff1673ffffffffffffffffffffffffffffffffffffffff16815260200190815260200160002060009054906101000a900473ffffffffffffffffffffffffffffffffffffffff1633846040518463ffffffff1660e01b8152600401610be693929190611d58565b6020604051808303816000875af1158015610c05573d6000803e3d6000fd5b505050506040513d601f19601f82011682018060405250810190610c299190611dbb565b5060028360000160146101000a81548160ff02191690836002811115610c5257610c51611704565b5b02179055507f6ceedee270fe047b15b6ae934d59c012a2ee8d6e64b9980d26759bfd0dd1e12e600260003373ffffffffffffffffffffffffffffffffffffffff1673ffffffffffffffffffffffffffffffffffffffff16815260200190815260200160002060009054906101000a900473ffffffffffffffffffffffffffffffffffffffff163383604051610ce993929190611d58565b60405180910390a15050505050565b610d00611599565b73ffffffffffffffffffffffffffffffffffffffff16610d1e610d80565b73ffffffffffffffffffffffffffffffffffffffff1614610d74576040517f08c379a0000000000000000000000000000000000000000000000000000000008152600401610d6b90611e34565b60405180910390fd5b610d7e60006115a1565b565b60008060009054906101000a900473ffffffffffffffffffffffffffffffffffffffff16905090565b60008073ffffffffffffffffffffffffffffffffffffffff16600160003373ffffffffffffffffffffffffffffffffffffffff1673ffffffffffffffffffffffffffffffffffffffff16815260200190815260200160002060000160009054906101000a900473ffffffffffffffffffffffffffffffffffffffff1673ffffffffffffffffffffffffffffffffffffffff161415610e7c576040517f08c379a0000000000000000000000000000000000000000000000000000000008152600401610e7390611ec6565b60405180910390fd5b60006002811115610e9057610e8f611704565b5b600160003373ffffffffffffffffffffffffffffffffffffffff1673ffffffffffffffffffffffffffffffffffffffff16815260200190815260200160002060000160149054906101000a900460ff166002811115610ef257610ef1611704565b5b14610f32576040517f08c379a0000000000000000000000000000000000000000000000000000000008152600401610f2990611f58565b60405180910390fd5b60004290506000600160003373ffffffffffffffffffffffffffffffffffffffff1673ffffffffffffffffffffffffffffffffffffffff1681526020019081526020016000209050620151808160020160149054906101000a900461ffff1661ffff16610f9f9190611c59565b62ffffff168160010154610fb39190611c96565b8210610ff15760018160000160146101000a81548160ff02191690836002811115610fe157610fe0611704565b5b021790555060009250505061103a565b8181600101819055507fa3fb16f33f6cff93a28b6f8d0dd5f4e9e1f34f8961ec46e86e274481276cb334338360405161102b929190611f78565b60405180910390a16001925050505b90565b600073ffffffffffffffffffffffffffffffffffffffff16600160003373ffffffffffffffffffffffffffffffffffffffff1673ffffffffffffffffffffffffffffffffffffffff16815260200190815260200160002060000160009054906101000a900473ffffffffffffffffffffffffffffffffffffffff1673ffffffffffffffffffffffffffffffffffffffff16141561110f576040517f08c379a000000000000000000000000000000000000000000000000000000000815260040161110690611ec6565b60405180910390fd5b6000600281111561112357611122611704565b5b600160003373ffffffffffffffffffffffffffffffffffffffff1673ffffffffffffffffffffffffffffffffffffffff16815260200190815260200160002060000160149054906101000a900460ff16600281111561118557611184611704565b5b146111c5576040517f08c379a00000000000000000000000000000000000000000000000000000000081526004016111bc90611f58565b60405180910390fd5b6000600160003373ffffffffffffffffffffffffffffffffffffffff1673ffffffffffffffffffffffffffffffffffffffff1681526020019081526020016000206040518060a00160405290816000820160009054906101000a900473ffffffffffffffffffffffffffffffffffffffff1673ffffffffffffffffffffffffffffffffffffffff1673ffffffffffffffffffffffffffffffffffffffff1681526020016000820160149054906101000a900460ff16600281111561128c5761128b611704565b5b600281111561129e5761129d611704565b5b8152602001600182015481526020016002820160009054906101000a900473ffffffffffffffffffffffffffffffffffffffff1673ffffffffffffffffffffffffffffffffffffffff1673ffffffffffffffffffffffffffffffffffffffff1681526020016002820160149054906101000a900461ffff1661ffff1661ffff1681525050905060026000826000015173ffffffffffffffffffffffffffffffffffffffff1673ffffffffffffffffffffffffffffffffffffffff16815260200190815260200160002060006101000a81549073ffffffffffffffffffffffffffffffffffffffff0219169055600160003373ffffffffffffffffffffffffffffffffffffffff1673ffffffffffffffffffffffffffffffffffffffff168152602001908152602001600020600080820160006101000a81549073ffffffffffffffffffffffffffffffffffffffff02191690556000820160146101000a81549060ff021916905560018201600090556002820160006101000a81549073ffffffffffffffffffffffffffffffffffffffff02191690556002820160146101000a81549061ffff021916905550507f2c15861bf6f3683debcd823e7067d90b3f3a239ea17f1caf267eb808e98dc5bb816000015182602001518360400151846060015185608001516040516114969594939291906117b1565b60405180910390a150565b6114a9611599565b73ffffffffffffffffffffffffffffffffffffffff166114c7610d80565b73ffffffffffffffffffffffffffffffffffffffff161461151d576040517f08c379a000000000000000000000000000000000000000000000000000000000815260040161151490611e34565b60405180910390fd5b600073ffffffffffffffffffffffffffffffffffffffff168173ffffffffffffffffffffffffffffffffffffffff16141561158d576040517f08c379a000000000000000000000000000000000000000000000000000000000815260040161158490612013565b60405180910390fd5b611596816115a1565b50565b600033905090565b60008060009054906101000a900473ffffffffffffffffffffffffffffffffffffffff169050816000806101000a81548173ffffffffffffffffffffffffffffffffffffffff021916908373ffffffffffffffffffffffffffffffffffffffff1602179055508173ffffffffffffffffffffffffffffffffffffffff168173ffffffffffffffffffffffffffffffffffffffff167f8be0079c531659141344cd1fd0a4f28419497f9722a3daafe3b4186f6b6457e060405160405180910390a35050565b600080fd5b600073ffffffffffffffffffffffffffffffffffffffff82169050919050565b60006116958261166a565b9050919050565b6116a58161168a565b81146116b057600080fd5b50565b6000813590506116c28161169c565b92915050565b6000602082840312156116de576116dd611665565b5b60006116ec848285016116b3565b91505092915050565b6116fe8161168a565b82525050565b7f4e487b7100000000000000000000000000000000000000000000000000000000600052602160045260246000fd5b6003811061174457611743611704565b5b50565b600081905061175582611733565b919050565b600061176582611747565b9050919050565b6117758161175a565b82525050565b6000819050919050565b61178e8161177b565b82525050565b600061ffff82169050919050565b6117ab81611794565b82525050565b600060a0820190506117c660008301886116f5565b6117d3602083018761176c565b6117e06040830186611785565b6117ed60608301856116f5565b6117fa60808301846117a2565b9695505050505050565b61180d81611794565b811461181857600080fd5b50565b60008135905061182a81611804565b92915050565b60008060006060848603121561184957611848611665565b5b6000611857868287016116b3565b9350506020611868868287016116b3565b92505060406118798682870161181b565b9150509250925092565b600060208201905061189860008301846116f5565b92915050565b60008115159050919050565b6118b38161189e565b82525050565b60006020820190506118ce60008301846118aa565b92915050565b600082825260208201905092915050565b7f546865207465737461746f7220646f6573206e6f742065786973742e00000000600082015250565b600061191b601c836118d4565b9150611926826118e5565b602082019050919050565b6000602082019050818103600083015261194a8161190e565b9050919050565b7f6d6178446179732073686f756c642062652067726561746572207468616e203060008201527f2e00000000000000000000000000000000000000000000000000000000000000602082015250565b60006119ad6021836118d4565b91506119b882611951565b604082019050919050565b600060208201905081810360008301526119dc816119a0565b9050919050565b7f5465737461746f7220616c7265616479206861766520612074657374616d656e60008201527f742e000000000000000000000000000000000000000000000000000000000000602082015250565b6000611a3f6022836118d4565b9150611a4a826119e3565b604082019050919050565b60006020820190508181036000830152611a6e81611a32565b9050919050565b6000604082019050611a8a60008301856116f5565b611a9760208301846116f5565b9392505050565b611aa78161177b565b8114611ab257600080fd5b50565b600081519050611ac481611a9e565b92915050565b600060208284031215611ae057611adf611665565b5b6000611aee84828501611ab5565b91505092915050565b7f546f6b656e20616c6c6f77616e63652073686f756c642062652067726561746560008201527f72207468616e20302e0000000000000000000000000000000000000000000000602082015250565b6000611b536029836118d4565b9150611b5e82611af7565b604082019050919050565b60006020820190508181036000830152611b8281611b46565b9050919050565b7f5468652061646472657373206973206e6f7420612076616c696420696e68657260008201527f69746f722e000000000000000000000000000000000000000000000000000000602082015250565b6000611be56025836118d4565b9150611bf082611b89565b604082019050919050565b60006020820190508181036000830152611c1481611bd8565b9050919050565b600062ffffff82169050919050565b7f4e487b7100000000000000000000000000000000000000000000000000000000600052601160045260246000fd5b6000611c6482611c1b565b9150611c6f83611c1b565b92508162ffffff0483118215151615611c8b57611c8a611c2a565b5b828202905092915050565b6000611ca18261177b565b9150611cac8361177b565b9250827fffffffffffffffffffffffffffffffffffffffffffffffffffffffffffffffff03821115611ce157611ce0611c2a565b5b828201905092915050565b7f546865206d6178206461797320646964206e6f7420706173736564207965742e600082015250565b6000611d226020836118d4565b9150611d2d82611cec565b602082019050919050565b60006020820190508181036000830152611d5181611d15565b9050919050565b6000606082019050611d6d60008301866116f5565b611d7a60208301856116f5565b611d876040830184611785565b949350505050565b611d988161189e565b8114611da357600080fd5b50565b600081519050611db581611d8f565b92915050565b600060208284031215611dd157611dd0611665565b5b6000611ddf84828501611da6565b91505092915050565b7f4f776e61626c653a2063616c6c6572206973206e6f7420746865206f776e6572600082015250565b6000611e1e6020836118d4565b9150611e2982611de8565b602082019050919050565b60006020820190508181036000830152611e4d81611e11565b9050919050565b7f5468652061646472657373206973206e6f7420612076616c696420746573746160008201527f746f722e00000000000000000000000000000000000000000000000000000000602082015250565b6000611eb06024836118d4565b9150611ebb82611e54565b604082019050919050565b60006020820190508181036000830152611edf81611ea3565b9050919050565b7f546865206164647265737320686f6c646572206973206e6f742061637469766560008201527f2e00000000000000000000000000000000000000000000000000000000000000602082015250565b6000611f426021836118d4565b9150611f4d82611ee6565b604082019050919050565b60006020820190508181036000830152611f7181611f35565b9050919050565b6000604082019050611f8d60008301856116f5565b611f9a6020830184611785565b9392505050565b7f4f776e61626c653a206e6577206f776e657220697320746865207a65726f206160008201527f6464726573730000000000000000000000000000000000000000000000000000602082015250565b6000611ffd6026836118d4565b915061200882611fa1565b604082019050919050565b6000602082019050818103600083015261202c81611ff0565b905091905056fea264697066735822122070b2660dc2a0997e226153893135d7055d927b1adb720af5071bbea90d18f65264736f6c634300080b0033",
  "linkReferences": {},
  "deployedLinkReferences": {}
}