{
  "_format": "hh-sol-artifact-1",
  "contractName": "Testament",
  "sourceName": "contracts/Premium/Testament.sol",
  "abi": [
    {
      "inputs": [
        {
          "internalType": "address",
          "name": "_testatorWallet",
          "type": "address"
        },
        {
          "internalType": "address",
          "name": "_claimer",
          "type": "address"
        },
        {
          "components": [
            {
              "internalType": "address",
              "name": "inheritorAddress",
              "type": "address"
            },
            {
              "internalType": "uint8",
              "name": "inheritedPercentage",
              "type": "uint8"
            },
            {
              "internalType": "bool",
              "name": "claimer",
              "type": "bool"
            }
          ],
          "internalType": "struct Testament.Inheritor[]",
          "name": "_inheritors",
          "type": "tuple[]"
        },
        {
          "internalType": "uint16",
          "name": "_maxDays",
          "type": "uint16"
        }
      ],
      "stateMutability": "nonpayable",
      "type": "constructor"
    },
    {
      "anonymous": false,
      "inputs": [
        {
          "indexed": false,
          "internalType": "address",
          "name": "testator",
          "type": "address"
        },
        {
          "indexed": false,
          "internalType": "uint8",
          "name": "numberOfInheritors",
          "type": "uint8"
        },
        {
          "indexed": false,
          "internalType": "enum Testament.Status",
          "name": "newStatus",
          "type": "uint8"
        }
      ],
      "name": "Inherited",
      "type": "event"
    },
    {
      "anonymous": false,
      "inputs": [
        {
          "indexed": false,
          "internalType": "uint256",
          "name": "remainingDays",
          "type": "uint256"
        }
      ],
      "name": "ProofUpdated",
      "type": "event"
    },
    {
      "anonymous": false,
      "inputs": [
        {
          "indexed": false,
          "internalType": "address",
          "name": "tokenAddress",
          "type": "address"
        }
      ],
      "name": "TokenAdded",
      "type": "event"
    },
    {
      "inputs": [
        {
          "internalType": "address",
          "name": "_tokenAddress",
          "type": "address"
        }
      ],
      "name": "addToken",
      "outputs": [],
      "stateMutability": "nonpayable",
      "type": "function"
    },
    {
      "inputs": [],
      "name": "getTestament",
      "outputs": [
        {
          "internalType": "address",
          "name": "",
          "type": "address"
        },
        {
          "internalType": "address",
          "name": "",
          "type": "address"
        },
        {
          "internalType": "address",
          "name": "",
          "type": "address"
        },
        {
          "internalType": "uint16",
          "name": "",
          "type": "uint16"
        },
        {
          "internalType": "uint256",
          "name": "",
          "type": "uint256"
        },
        {
          "internalType": "enum Testament.Status",
          "name": "",
          "type": "uint8"
        },
        {
          "components": [
            {
              "internalType": "address",
              "name": "inheritorAddress",
              "type": "address"
            },
            {
              "internalType": "uint8",
              "name": "inheritedPercentage",
              "type": "uint8"
            },
            {
              "internalType": "bool",
              "name": "claimer",
              "type": "bool"
            }
          ],
          "internalType": "struct Testament.Inheritor[]",
          "name": "",
          "type": "tuple[]"
        },
        {
          "internalType": "address[]",
          "name": "",
          "type": "address[]"
        }
      ],
      "stateMutability": "view",
      "type": "function"
    },
    {
      "inputs": [],
      "name": "inherit",
      "outputs": [],
      "stateMutability": "nonpayable",
      "type": "function"
    },
    {
      "inputs": [],
      "name": "updateProof",
      "outputs": [],
      "stateMutability": "nonpayable",
      "type": "function"
    }
  ],
  "bytecode": "0x60806040523480156200001157600080fd5b5060405162001ec838038062001ec883398181016040528101906200003791906200056d565b600160008190555033600160006101000a81548173ffffffffffffffffffffffffffffffffffffffff021916908373ffffffffffffffffffffffffffffffffffffffff16021790555083600260006101000a81548173ffffffffffffffffffffffffffffffffffffffff021916908373ffffffffffffffffffffffffffffffffffffffff16021790555082600360006101000a81548173ffffffffffffffffffffffffffffffffffffffff021916908373ffffffffffffffffffffffffffffffffffffffff16021790555080600360146101000a81548161ffff021916908361ffff160217905550426004819055506000600560006101000a81548160ff021916908360028111156200014f576200014e620005fe565b5b021790555060005b8251811015620002465760068382815181106200017957620001786200062d565b5b60200260200101519080600181540180825580915050600190039060005260206000200160009091909190915060008201518160000160006101000a81548173ffffffffffffffffffffffffffffffffffffffff021916908373ffffffffffffffffffffffffffffffffffffffff16021790555060208201518160000160146101000a81548160ff021916908360ff16021790555060408201518160000160156101000a81548160ff021916908315150217905550505080806200023d9062000695565b91505062000157565b5050505050620006e3565b6000604051905090565b600080fd5b600080fd5b600073ffffffffffffffffffffffffffffffffffffffff82169050919050565b6000620002928262000265565b9050919050565b620002a48162000285565b8114620002b057600080fd5b50565b600081519050620002c48162000299565b92915050565b600080fd5b6000601f19601f8301169050919050565b7f4e487b7100000000000000000000000000000000000000000000000000000000600052604160045260246000fd5b6200031a82620002cf565b810181811067ffffffffffffffff821117156200033c576200033b620002e0565b5b80604052505050565b60006200035162000251565b90506200035f82826200030f565b919050565b600067ffffffffffffffff821115620003825762000381620002e0565b5b602082029050602081019050919050565b600080fd5b600080fd5b600060ff82169050919050565b620003b5816200039d565b8114620003c157600080fd5b50565b600081519050620003d581620003aa565b92915050565b60008115159050919050565b620003f281620003db565b8114620003fe57600080fd5b50565b6000815190506200041281620003e7565b92915050565b60006060828403121562000431576200043062000398565b5b6200043d606062000345565b905060006200044f84828501620002b3565b60008301525060206200046584828501620003c4565b60208301525060406200047b8482850162000401565b60408301525092915050565b60006200049e620004988462000364565b62000345565b90508083825260208201905060608402830185811115620004c457620004c362000393565b5b835b81811015620004f15780620004dc888262000418565b845260208401935050606081019050620004c6565b5050509392505050565b600082601f830112620005135762000512620002ca565b5b81516200052584826020860162000487565b91505092915050565b600061ffff82169050919050565b62000547816200052e565b81146200055357600080fd5b50565b60008151905062000567816200053c565b92915050565b600080600080608085870312156200058a57620005896200025b565b5b60006200059a87828801620002b3565b9450506020620005ad87828801620002b3565b935050604085015167ffffffffffffffff811115620005d157620005d062000260565b5b620005df87828801620004fb565b9250506060620005f28782880162000556565b91505092959194509250565b7f4e487b7100000000000000000000000000000000000000000000000000000000600052602160045260246000fd5b7f4e487b7100000000000000000000000000000000000000000000000000000000600052603260045260246000fd5b7f4e487b7100000000000000000000000000000000000000000000000000000000600052601160045260246000fd5b6000819050919050565b6000620006a2826200068b565b91507fffffffffffffffffffffffffffffffffffffffffffffffffffffffffffffffff821415620006d857620006d76200065c565b5b600182019050919050565b6117d580620006f36000396000f3fe608060405234801561001057600080fd5b506004361061004c5760003560e01c80632b445d781461005157806368f4fb291461005b578063aef09e3a14610080578063d48bfca71461008a575b600080fd5b6100596100a6565b005b610063610553565b604051610077989796959493929190610e71565b60405180910390f35b610088610775565b005b6100a4600480360381019061009f9190610f2e565b6107fa565b005b600260005414156100ec576040517f08c379a00000000000000000000000000000000000000000000000000000000081526004016100e390610fb8565b60405180910390fd5b60026000819055503373ffffffffffffffffffffffffffffffffffffffff16600360009054906101000a900473ffffffffffffffffffffffffffffffffffffffff1673ffffffffffffffffffffffffffffffffffffffff1614610184576040517f08c379a000000000000000000000000000000000000000000000000000000000815260040161017b90611024565b60405180910390fd5b60028081111561019757610196610c14565b5b600560009054906101000a900460ff1660028111156101b9576101b8610c14565b5b14156101fa576040517f08c379a00000000000000000000000000000000000000000000000000000000081526004016101f1906110b6565b60405180910390fd5b600042905062015180600360149054906101000a900461ffff1661ffff166102229190611114565b62ffffff166004546102349190611151565b8110610266576001600560006101000a81548160ff021916908360028111156102605761025f610c14565b5b02179055505b6000600281111561027a57610279610c14565b5b600560009054906101000a900460ff16600281111561029c5761029b610c14565b5b14156102dd576040517f08c379a00000000000000000000000000000000000000000000000000000000081526004016102d4906111f3565b60405180910390fd5b60005b6007805490508110156104d65760006007828154811061030357610302611213565b5b9060005260206000200160009054906101000a900473ffffffffffffffffffffffffffffffffffffffff169050600081905060008173ffffffffffffffffffffffffffffffffffffffff1663dd62ed3e84306040518363ffffffff1660e01b8152600401610372929190611242565b602060405180830381865afa15801561038f573d6000803e3d6000fd5b505050506040513d601f19601f820116820180604052508101906103b39190611297565b90506002600560006101000a81548160ff021916908360028111156103db576103da610c14565b5b021790555060005b6006805490508110156104bf57600060646006838154811061040857610407611213565b5b9060005260206000200160000160149054906101000a900460ff1660ff168461043191906112c4565b61043b919061134d565b90506104ab856006848154811061045557610454611213565b5b9060005260206000200160000160009054906101000a900473ffffffffffffffffffffffffffffffffffffffff16838773ffffffffffffffffffffffffffffffffffffffff16610897909392919063ffffffff16565b5080806104b79061137e565b9150506103e3565b5050505080806104ce9061137e565b9150506102e0565b507f3d3f5f390e75dbf57afc00b4b113e0e7006e5ad37074197dcbf769e4bcd97c4f600260009054906101000a900473ffffffffffffffffffffffffffffffffffffffff16600680549050600560009054906101000a900460ff16604051610540939291906113d6565b60405180910390a1506001600081905550565b600080600080600080606080600160009054906101000a900473ffffffffffffffffffffffffffffffffffffffff16600260009054906101000a900473ffffffffffffffffffffffffffffffffffffffff16600360009054906101000a900473ffffffffffffffffffffffffffffffffffffffff16600360149054906101000a900461ffff16600454600560009054906101000a900460ff166006600781805480602002602001604051908101604052809291908181526020016000905b828210156106cd578382906000526020600020016040518060600160405290816000820160009054906101000a900473ffffffffffffffffffffffffffffffffffffffff1673ffffffffffffffffffffffffffffffffffffffff1673ffffffffffffffffffffffffffffffffffffffff1681526020016000820160149054906101000a900460ff1660ff1660ff1681526020016000820160159054906101000a900460ff16151515158152505081526020019060010190610611565b5050505091508080548060200260200160405190810160405280929190818152602001828054801561075457602002820191906000526020600020905b8160009054906101000a900473ffffffffffffffffffffffffffffffffffffffff1673ffffffffffffffffffffffffffffffffffffffff168152602001906001019080831161070a575b50505050509050975097509750975097509750975097509091929394959697565b4260048190555060004262015180600360149054906101000a900461ffff1661ffff166107a29190611114565b62ffffff166004546107b49190611151565b6107be919061140d565b90507f43e6648706999a361948714899a065085b7c145659f3df2563b33fa34479eba6816040516107ef9190611441565b60405180910390a150565b6007819080600181540180825580915050600190039060005260206000200160009091909190916101000a81548173ffffffffffffffffffffffffffffffffffffffff021916908373ffffffffffffffffffffffffffffffffffffffff1602179055507f784c8f4dbf0ffedd6e72c76501c545a70f8b203b30a26ce542bf92ba87c248a48160405161088c919061145c565b60405180910390a150565b61091a846323b872dd60e01b8585856040516024016108b893929190611477565b604051602081830303815290604052907bffffffffffffffffffffffffffffffffffffffffffffffffffffffff19166020820180517bffffffffffffffffffffffffffffffffffffffffffffffffffffffff8381831617835250505050610920565b50505050565b6000610982826040518060400160405280602081526020017f5361666545524332303a206c6f772d6c6576656c2063616c6c206661696c65648152508573ffffffffffffffffffffffffffffffffffffffff166109e79092919063ffffffff16565b90506000815111156109e257808060200190518101906109a291906114da565b6109e1576040517f08c379a00000000000000000000000000000000000000000000000000000000081526004016109d890611579565b60405180910390fd5b5b505050565b60606109f684846000856109ff565b90509392505050565b606082471015610a44576040517f08c379a0000000000000000000000000000000000000000000000000000000008152600401610a3b9061160b565b60405180910390fd5b610a4d85610b13565b610a8c576040517f08c379a0000000000000000000000000000000000000000000000000000000008152600401610a8390611677565b60405180910390fd5b6000808673ffffffffffffffffffffffffffffffffffffffff168587604051610ab59190611711565b60006040518083038185875af1925050503d8060008114610af2576040519150601f19603f3d011682016040523d82523d6000602084013e610af7565b606091505b5091509150610b07828286610b36565b92505050949350505050565b6000808273ffffffffffffffffffffffffffffffffffffffff163b119050919050565b60608315610b4657829050610b96565b600083511115610b595782518084602001fd5b816040517f08c379a0000000000000000000000000000000000000000000000000000000008152600401610b8d919061177d565b60405180910390fd5b9392505050565b600073ffffffffffffffffffffffffffffffffffffffff82169050919050565b6000610bc882610b9d565b9050919050565b610bd881610bbd565b82525050565b600061ffff82169050919050565b610bf581610bde565b82525050565b6000819050919050565b610c0e81610bfb565b82525050565b7f4e487b7100000000000000000000000000000000000000000000000000000000600052602160045260246000fd5b60038110610c5457610c53610c14565b5b50565b6000819050610c6582610c43565b919050565b6000610c7582610c57565b9050919050565b610c8581610c6a565b82525050565b600081519050919050565b600082825260208201905092915050565b6000819050602082019050919050565b610cc081610bbd565b82525050565b600060ff82169050919050565b610cdc81610cc6565b82525050565b60008115159050919050565b610cf781610ce2565b82525050565b606082016000820151610d136000850182610cb7565b506020820151610d266020850182610cd3565b506040820151610d396040850182610cee565b50505050565b6000610d4b8383610cfd565b60608301905092915050565b6000602082019050919050565b6000610d6f82610c8b565b610d798185610c96565b9350610d8483610ca7565b8060005b83811015610db5578151610d9c8882610d3f565b9750610da783610d57565b925050600181019050610d88565b5085935050505092915050565b600081519050919050565b600082825260208201905092915050565b6000819050602082019050919050565b6000610dfa8383610cb7565b60208301905092915050565b6000602082019050919050565b6000610e1e82610dc2565b610e288185610dcd565b9350610e3383610dde565b8060005b83811015610e64578151610e4b8882610dee565b9750610e5683610e06565b925050600181019050610e37565b5085935050505092915050565b600061010082019050610e87600083018b610bcf565b610e94602083018a610bcf565b610ea16040830189610bcf565b610eae6060830188610bec565b610ebb6080830187610c05565b610ec860a0830186610c7c565b81810360c0830152610eda8185610d64565b905081810360e0830152610eee8184610e13565b90509998505050505050505050565b600080fd5b610f0b81610bbd565b8114610f1657600080fd5b50565b600081359050610f2881610f02565b92915050565b600060208284031215610f4457610f43610efd565b5b6000610f5284828501610f19565b91505092915050565b600082825260208201905092915050565b7f5265656e7472616e637947756172643a207265656e7472616e742063616c6c00600082015250565b6000610fa2601f83610f5b565b9150610fad82610f6c565b602082019050919050565b60006020820190508181036000830152610fd181610f95565b9050919050565b7f5468652061646472657373206973206e6f74206120636c61696d657200000000600082015250565b600061100e601c83610f5b565b915061101982610fd8565b602082019050919050565b6000602082019050818103600083015261103d81611001565b9050919050565b7f54686520686572697461676520686173206265656e20616c726561647920696e60008201527f686572697465642e000000000000000000000000000000000000000000000000602082015250565b60006110a0602883610f5b565b91506110ab82611044565b604082019050919050565b600060208201905081810360008301526110cf81611093565b9050919050565b600062ffffff82169050919050565b7f4e487b7100000000000000000000000000000000000000000000000000000000600052601160045260246000fd5b600061111f826110d6565b915061112a836110d6565b92508162ffffff0483118215151615611146576111456110e5565b5b828202905092915050565b600061115c82610bfb565b915061116783610bfb565b9250827fffffffffffffffffffffffffffffffffffffffffffffffffffffffffffffffff0382111561119c5761119b6110e5565b5b828201905092915050565b7f546865206163636f756e74206973206163746976650000000000000000000000600082015250565b60006111dd601583610f5b565b91506111e8826111a7565b602082019050919050565b6000602082019050818103600083015261120c816111d0565b9050919050565b7f4e487b7100000000000000000000000000000000000000000000000000000000600052603260045260246000fd5b60006040820190506112576000830185610bcf565b6112646020830184610bcf565b9392505050565b61127481610bfb565b811461127f57600080fd5b50565b6000815190506112918161126b565b92915050565b6000602082840312156112ad576112ac610efd565b5b60006112bb84828501611282565b91505092915050565b60006112cf82610bfb565b91506112da83610bfb565b9250817fffffffffffffffffffffffffffffffffffffffffffffffffffffffffffffffff0483118215151615611313576113126110e5565b5b828202905092915050565b7f4e487b7100000000000000000000000000000000000000000000000000000000600052601260045260246000fd5b600061135882610bfb565b915061136383610bfb565b9250826113735761137261131e565b5b828204905092915050565b600061138982610bfb565b91507fffffffffffffffffffffffffffffffffffffffffffffffffffffffffffffffff8214156113bc576113bb6110e5565b5b600182019050919050565b6113d081610cc6565b82525050565b60006060820190506113eb6000830186610bcf565b6113f860208301856113c7565b6114056040830184610c7c565b949350505050565b600061141882610bfb565b915061142383610bfb565b925082821015611436576114356110e5565b5b828203905092915050565b60006020820190506114566000830184610c05565b92915050565b60006020820190506114716000830184610bcf565b92915050565b600060608201905061148c6000830186610bcf565b6114996020830185610bcf565b6114a66040830184610c05565b949350505050565b6114b781610ce2565b81146114c257600080fd5b50565b6000815190506114d4816114ae565b92915050565b6000602082840312156114f0576114ef610efd565b5b60006114fe848285016114c5565b91505092915050565b7f5361666545524332303a204552433230206f7065726174696f6e20646964206e60008201527f6f74207375636365656400000000000000000000000000000000000000000000602082015250565b6000611563602a83610f5b565b915061156e82611507565b604082019050919050565b6000602082019050818103600083015261159281611556565b9050919050565b7f416464726573733a20696e73756666696369656e742062616c616e636520666f60008201527f722063616c6c0000000000000000000000000000000000000000000000000000602082015250565b60006115f5602683610f5b565b915061160082611599565b604082019050919050565b60006020820190508181036000830152611624816115e8565b9050919050565b7f416464726573733a2063616c6c20746f206e6f6e2d636f6e7472616374000000600082015250565b6000611661601d83610f5b565b915061166c8261162b565b602082019050919050565b6000602082019050818103600083015261169081611654565b9050919050565b600081519050919050565b600081905092915050565b60005b838110156116cb5780820151818401526020810190506116b0565b838111156116da576000848401525b50505050565b60006116eb82611697565b6116f581856116a2565b93506117058185602086016116ad565b80840191505092915050565b600061171d82846116e0565b915081905092915050565b600081519050919050565b6000601f19601f8301169050919050565b600061174f82611728565b6117598185610f5b565b93506117698185602086016116ad565b61177281611733565b840191505092915050565b600060208201905081810360008301526117978184611744565b90509291505056fea26469706673582212205c4de55a7806c3a96c5634f4a9900685ed3ab0d476541479469e96906831d21164736f6c634300080b0033",
  "linkReferences": {},
  "deployedLinkReferences": {}
}