{
  "_format": "hh-sol-artifact-1",
  "contractName": "TestamentFactory",
  "sourceName": "contracts/Premium/TestamentFactory.sol",
  "abi": [
    {
      "anonymous": false,
      "inputs": [
        {
          "indexed": false,
          "internalType": "contract Testament",
          "name": "childTestament",
          "type": "address"
        }
      ],
      "name": "NewTestamentCreated",
      "type": "event"
    },
    {
      "inputs": [
        {
          "internalType": "address",
          "name": "_testatorWallet",
          "type": "address"
        },
        {
          "internalType": "address",
          "name": "_claimer",
          "type": "address"
        },
        {
          "components": [
            {
              "internalType": "address",
              "name": "inheritorAddress",
              "type": "address"
            },
            {
              "internalType": "uint8",
              "name": "inheritedPercentage",
              "type": "uint8"
            },
            {
              "internalType": "bool",
              "name": "claimer",
              "type": "bool"
            }
          ],
          "internalType": "struct Testament.Inheritor[]",
          "name": "_inheritors",
          "type": "tuple[]"
        },
        {
          "internalType": "uint16",
          "name": "_maxDays",
          "type": "uint16"
        }
      ],
      "name": "writeTestament",
      "outputs": [
        {
          "internalType": "address",
          "name": "",
          "type": "address"
        }
      ],
      "stateMutability": "nonpayable",
      "type": "function"
    }
  ],
  "bytecode": "0x608060405234801561001057600080fd5b50611f14806100206000396000f3fe60806040523480156200001157600080fd5b50600436106200002e5760003560e01c8063ab4434d01462000033575b600080fd5b6200005160048036038101906200004b91906200033c565b62000069565b604051620000609190620003e3565b60405180910390f35b60008086868686866040516200007f9062000212565b6200008f95949392919062000626565b604051809103906000f080158015620000ac573d6000803e3d6000fd5b509050806000808973ffffffffffffffffffffffffffffffffffffffff1673ffffffffffffffffffffffffffffffffffffffff16815260200190815260200160002060006101000a81548173ffffffffffffffffffffffffffffffffffffffff021916908373ffffffffffffffffffffffffffffffffffffffff160217905550600160008773ffffffffffffffffffffffffffffffffffffffff1673ffffffffffffffffffffffffffffffffffffffff168152602001908152602001600020819080600181540180825580915050600190039060005260206000200160009091909190916101000a81548173ffffffffffffffffffffffffffffffffffffffff021916908373ffffffffffffffffffffffffffffffffffffffff1602179055507fc3914f5d271e4232e404fd350ca8b658a4a1e718af9d0fb6d3b483300a69902b81604051620001fd9190620006e7565b60405180910390a18091505095945050505050565b6117da806200070583390190565b600080fd5b600080fd5b600073ffffffffffffffffffffffffffffffffffffffff82169050919050565b600062000257826200022a565b9050919050565b62000269816200024a565b81146200027557600080fd5b50565b60008135905062000289816200025e565b92915050565b600080fd5b600080fd5b600080fd5b60008083601f840112620002b757620002b66200028f565b5b8235905067ffffffffffffffff811115620002d757620002d662000294565b5b602083019150836060820283011115620002f657620002f562000299565b5b9250929050565b600061ffff82169050919050565b6200031681620002fd565b81146200032257600080fd5b50565b60008135905062000336816200030b565b92915050565b6000806000806000608086880312156200035b576200035a62000220565b5b60006200036b8882890162000278565b95505060206200037e8882890162000278565b945050604086013567ffffffffffffffff811115620003a257620003a162000225565b5b620003b0888289016200029e565b93509350506060620003c58882890162000325565b9150509295509295909350565b620003dd816200024a565b82525050565b6000602082019050620003fa6000830184620003d2565b92915050565b600082825260208201905092915050565b6000819050919050565b60006200042c602084018462000278565b905092915050565b6200043f816200024a565b82525050565b600060ff82169050919050565b6200045d8162000445565b81146200046957600080fd5b50565b6000813590506200047d8162000452565b92915050565b60006200049460208401846200046c565b905092915050565b620004a78162000445565b82525050565b60008115159050919050565b620004c481620004ad565b8114620004d057600080fd5b50565b600081359050620004e481620004b9565b92915050565b6000620004fb6020840184620004d3565b905092915050565b6200050e81620004ad565b82525050565b606082016200052760008301836200041b565b62000536600085018262000434565b5062000546602083018362000483565b6200055560208501826200049c565b50620005656040830183620004ea565b62000574604085018262000503565b50505050565b600062000588838362000514565b60608301905092915050565b600082905092915050565b6000606082019050919050565b6000620005ba838562000400565b9350620005c78262000411565b8060005b858110156200060857620005e0828462000594565b620005ec88826200057a565b9750620005f9836200059f565b925050600181019050620005cb565b5085925050509392505050565b6200062081620002fd565b82525050565b60006080820190506200063d6000830188620003d2565b6200064c6020830187620003d2565b818103604083015262000661818587620005ac565b905062000672606083018462000615565b9695505050505050565b6000819050919050565b6000620006a7620006a16200069b846200022a565b6200067c565b6200022a565b9050919050565b6000620006bb8262000686565b9050919050565b6000620006cf82620006ae565b9050919050565b620006e181620006c2565b82525050565b6000602082019050620006fe6000830184620006d6565b9291505056fe60806040523480156200001157600080fd5b50604051620017da380380620017da833981810160405281019062000037919062000568565b600160008190555033600160006101000a81548173ffffffffffffffffffffffffffffffffffffffff021916908373ffffffffffffffffffffffffffffffffffffffff16021790555083600260006101000a81548173ffffffffffffffffffffffffffffffffffffffff021916908373ffffffffffffffffffffffffffffffffffffffff16021790555082600360006101000a81548173ffffffffffffffffffffffffffffffffffffffff021916908373ffffffffffffffffffffffffffffffffffffffff16021790555080600360146101000a81548161ffff021916908361ffff160217905550426004819055506000600560006101000a81548160ff021916908360028111156200014f576200014e620005f9565b5b021790555060005b8251811015620002415782818151811062000177576200017662000628565b5b60200260200101516006828154811062000196576200019562000628565b5b9060005260206000200160008201518160000160006101000a81548173ffffffffffffffffffffffffffffffffffffffff021916908373ffffffffffffffffffffffffffffffffffffffff16021790555060208201518160000160146101000a81548160ff021916908360ff16021790555060408201518160000160156101000a81548160ff0219169083151502179055509050508080620002389062000690565b91505062000157565b5050505050620006de565b6000604051905090565b600080fd5b600080fd5b600073ffffffffffffffffffffffffffffffffffffffff82169050919050565b60006200028d8262000260565b9050919050565b6200029f8162000280565b8114620002ab57600080fd5b50565b600081519050620002bf8162000294565b92915050565b600080fd5b6000601f19601f8301169050919050565b7f4e487b7100000000000000000000000000000000000000000000000000000000600052604160045260246000fd5b6200031582620002ca565b810181811067ffffffffffffffff82111715620003375762000336620002db565b5b80604052505050565b60006200034c6200024c565b90506200035a82826200030a565b919050565b600067ffffffffffffffff8211156200037d576200037c620002db565b5b602082029050602081019050919050565b600080fd5b600080fd5b600060ff82169050919050565b620003b08162000398565b8114620003bc57600080fd5b50565b600081519050620003d081620003a5565b92915050565b60008115159050919050565b620003ed81620003d6565b8114620003f957600080fd5b50565b6000815190506200040d81620003e2565b92915050565b6000606082840312156200042c576200042b62000393565b5b62000438606062000340565b905060006200044a84828501620002ae565b60008301525060206200046084828501620003bf565b60208301525060406200047684828501620003fc565b60408301525092915050565b60006200049962000493846200035f565b62000340565b90508083825260208201905060608402830185811115620004bf57620004be6200038e565b5b835b81811015620004ec5780620004d7888262000413565b845260208401935050606081019050620004c1565b5050509392505050565b600082601f8301126200050e576200050d620002c5565b5b81516200052084826020860162000482565b91505092915050565b600061ffff82169050919050565b620005428162000529565b81146200054e57600080fd5b50565b600081519050620005628162000537565b92915050565b6000806000806080858703121562000585576200058462000256565b5b60006200059587828801620002ae565b9450506020620005a887828801620002ae565b935050604085015167ffffffffffffffff811115620005cc57620005cb6200025b565b5b620005da87828801620004f6565b9250506060620005ed8782880162000551565b91505092959194509250565b7f4e487b7100000000000000000000000000000000000000000000000000000000600052602160045260246000fd5b7f4e487b7100000000000000000000000000000000000000000000000000000000600052603260045260246000fd5b7f4e487b7100000000000000000000000000000000000000000000000000000000600052601160045260246000fd5b6000819050919050565b60006200069d8262000686565b91507fffffffffffffffffffffffffffffffffffffffffffffffffffffffffffffffff821415620006d357620006d262000657565b5b600182019050919050565b6110ec80620006ee6000396000f3fe608060405234801561001057600080fd5b506004361061002b5760003560e01c80632b445d7814610030575b600080fd5b61003861003a565b005b60026000541415610080576040517f08c379a00000000000000000000000000000000000000000000000000000000081526004016100779061084a565b60405180910390fd5b60026000819055503373ffffffffffffffffffffffffffffffffffffffff16600360009054906101000a900473ffffffffffffffffffffffffffffffffffffffff1673ffffffffffffffffffffffffffffffffffffffff1614610118576040517f08c379a000000000000000000000000000000000000000000000000000000000815260040161010f906108b6565b60405180910390fd5b60028081111561012b5761012a6108d6565b5b600560009054906101000a900460ff16600281111561014d5761014c6108d6565b5b141561018e576040517f08c379a000000000000000000000000000000000000000000000000000000000815260040161018590610977565b60405180910390fd5b600042905062015180600360149054906101000a900461ffff1661ffff166101b691906109d5565b62ffffff166004546101c89190610a1c565b81106101fa576001600560006101000a81548160ff021916908360028111156101f4576101f36108d6565b5b02179055505b6000600281111561020e5761020d6108d6565b5b600560009054906101000a900460ff1660028111156102305761022f6108d6565b5b1415610271576040517f08c379a000000000000000000000000000000000000000000000000000000000815260040161026890610abe565b60405180910390fd5b60005b60078054905081101561046a5760006007828154811061029757610296610ade565b5b9060005260206000200160009054906101000a900473ffffffffffffffffffffffffffffffffffffffff169050600081905060008173ffffffffffffffffffffffffffffffffffffffff1663dd62ed3e84306040518363ffffffff1660e01b8152600401610306929190610b4e565b602060405180830381865afa158015610323573d6000803e3d6000fd5b505050506040513d601f19601f820116820180604052508101906103479190610ba8565b90506002600560006101000a81548160ff0219169083600281111561036f5761036e6108d6565b5b021790555060005b60068054905081101561045357600060646006838154811061039c5761039b610ade565b5b9060005260206000200160000160149054906101000a900460ff1660ff16846103c59190610bd5565b6103cf9190610c5e565b905061043f85600684815481106103e9576103e8610ade565b5b9060005260206000200160000160009054906101000a900473ffffffffffffffffffffffffffffffffffffffff16838773ffffffffffffffffffffffffffffffffffffffff166104e7909392919063ffffffff16565b50808061044b90610c8f565b915050610377565b50505050808061046290610c8f565b915050610274565b507f3d3f5f390e75dbf57afc00b4b113e0e7006e5ad37074197dcbf769e4bcd97c4f600260009054906101000a900473ffffffffffffffffffffffffffffffffffffffff16600680549050600560009054906101000a900460ff166040516104d493929190610d3c565b60405180910390a1506001600081905550565b61056a846323b872dd60e01b85858560405160240161050893929190610d82565b604051602081830303815290604052907bffffffffffffffffffffffffffffffffffffffffffffffffffffffff19166020820180517bffffffffffffffffffffffffffffffffffffffffffffffffffffffff8381831617835250505050610570565b50505050565b60006105d2826040518060400160405280602081526020017f5361666545524332303a206c6f772d6c6576656c2063616c6c206661696c65648152508573ffffffffffffffffffffffffffffffffffffffff166106379092919063ffffffff16565b905060008151111561063257808060200190518101906105f29190610df1565b610631576040517f08c379a000000000000000000000000000000000000000000000000000000000815260040161062890610e90565b60405180910390fd5b5b505050565b6060610646848460008561064f565b90509392505050565b606082471015610694576040517f08c379a000000000000000000000000000000000000000000000000000000000815260040161068b90610f22565b60405180910390fd5b61069d85610763565b6106dc576040517f08c379a00000000000000000000000000000000000000000000000000000000081526004016106d390610f8e565b60405180910390fd5b6000808673ffffffffffffffffffffffffffffffffffffffff1685876040516107059190611028565b60006040518083038185875af1925050503d8060008114610742576040519150601f19603f3d011682016040523d82523d6000602084013e610747565b606091505b5091509150610757828286610786565b92505050949350505050565b6000808273ffffffffffffffffffffffffffffffffffffffff163b119050919050565b60608315610796578290506107e6565b6000835111156107a95782518084602001fd5b816040517f08c379a00000000000000000000000000000000000000000000000000000000081526004016107dd9190611094565b60405180910390fd5b9392505050565b600082825260208201905092915050565b7f5265656e7472616e637947756172643a207265656e7472616e742063616c6c00600082015250565b6000610834601f836107ed565b915061083f826107fe565b602082019050919050565b6000602082019050818103600083015261086381610827565b9050919050565b7f5468652061646472657373206973206e6f74206120636c61696d657200000000600082015250565b60006108a0601c836107ed565b91506108ab8261086a565b602082019050919050565b600060208201905081810360008301526108cf81610893565b9050919050565b7f4e487b7100000000000000000000000000000000000000000000000000000000600052602160045260246000fd5b7f54686520686572697461676520686173206265656e20616c726561647920696e60008201527f686572697465642e000000000000000000000000000000000000000000000000602082015250565b60006109616028836107ed565b915061096c82610905565b604082019050919050565b6000602082019050818103600083015261099081610954565b9050919050565b600062ffffff82169050919050565b7f4e487b7100000000000000000000000000000000000000000000000000000000600052601160045260246000fd5b60006109e082610997565b91506109eb83610997565b92508162ffffff0483118215151615610a0757610a066109a6565b5b828202905092915050565b6000819050919050565b6000610a2782610a12565b9150610a3283610a12565b9250827fffffffffffffffffffffffffffffffffffffffffffffffffffffffffffffffff03821115610a6757610a666109a6565b5b828201905092915050565b7f546865206163636f756e74206973206163746976650000000000000000000000600082015250565b6000610aa86015836107ed565b9150610ab382610a72565b602082019050919050565b60006020820190508181036000830152610ad781610a9b565b9050919050565b7f4e487b7100000000000000000000000000000000000000000000000000000000600052603260045260246000fd5b600073ffffffffffffffffffffffffffffffffffffffff82169050919050565b6000610b3882610b0d565b9050919050565b610b4881610b2d565b82525050565b6000604082019050610b636000830185610b3f565b610b706020830184610b3f565b9392505050565b600080fd5b610b8581610a12565b8114610b9057600080fd5b50565b600081519050610ba281610b7c565b92915050565b600060208284031215610bbe57610bbd610b77565b5b6000610bcc84828501610b93565b91505092915050565b6000610be082610a12565b9150610beb83610a12565b9250817fffffffffffffffffffffffffffffffffffffffffffffffffffffffffffffffff0483118215151615610c2457610c236109a6565b5b828202905092915050565b7f4e487b7100000000000000000000000000000000000000000000000000000000600052601260045260246000fd5b6000610c6982610a12565b9150610c7483610a12565b925082610c8457610c83610c2f565b5b828204905092915050565b6000610c9a82610a12565b91507fffffffffffffffffffffffffffffffffffffffffffffffffffffffffffffffff821415610ccd57610ccc6109a6565b5b600182019050919050565b600060ff82169050919050565b610cee81610cd8565b82525050565b60038110610d0557610d046108d6565b5b50565b6000819050610d1682610cf4565b919050565b6000610d2682610d08565b9050919050565b610d3681610d1b565b82525050565b6000606082019050610d516000830186610b3f565b610d5e6020830185610ce5565b610d6b6040830184610d2d565b949350505050565b610d7c81610a12565b82525050565b6000606082019050610d976000830186610b3f565b610da46020830185610b3f565b610db16040830184610d73565b949350505050565b60008115159050919050565b610dce81610db9565b8114610dd957600080fd5b50565b600081519050610deb81610dc5565b92915050565b600060208284031215610e0757610e06610b77565b5b6000610e1584828501610ddc565b91505092915050565b7f5361666545524332303a204552433230206f7065726174696f6e20646964206e60008201527f6f74207375636365656400000000000000000000000000000000000000000000602082015250565b6000610e7a602a836107ed565b9150610e8582610e1e565b604082019050919050565b60006020820190508181036000830152610ea981610e6d565b9050919050565b7f416464726573733a20696e73756666696369656e742062616c616e636520666f60008201527f722063616c6c0000000000000000000000000000000000000000000000000000602082015250565b6000610f0c6026836107ed565b9150610f1782610eb0565b604082019050919050565b60006020820190508181036000830152610f3b81610eff565b9050919050565b7f416464726573733a2063616c6c20746f206e6f6e2d636f6e7472616374000000600082015250565b6000610f78601d836107ed565b9150610f8382610f42565b602082019050919050565b60006020820190508181036000830152610fa781610f6b565b9050919050565b600081519050919050565b600081905092915050565b60005b83811015610fe2578082015181840152602081019050610fc7565b83811115610ff1576000848401525b50505050565b600061100282610fae565b61100c8185610fb9565b935061101c818560208601610fc4565b80840191505092915050565b60006110348284610ff7565b915081905092915050565b600081519050919050565b6000601f19601f8301169050919050565b60006110668261103f565b61107081856107ed565b9350611080818560208601610fc4565b6110898161104a565b840191505092915050565b600060208201905081810360008301526110ae818461105b565b90509291505056fea26469706673582212202ec36532bf1bef2b8dda7e865d48c53e948086fdd312755f720f225764b2c93364736f6c634300080b0033a2646970667358221220d169ace97a045e624171ed4999939a4d29c2fd7c0f36b0222e9a8301af50254264736f6c634300080b0033",
  "linkReferences": {},
  "deployedLinkReferences": {}
}