{
  "_format": "hh-sol-artifact-1",
  "contractName": "TestamentFactory",
  "sourceName": "contracts/Premium/TestamentFactory.sol",
  "abi": [
    {
      "anonymous": false,
      "inputs": [
        {
          "indexed": false,
          "internalType": "address",
          "name": "childTestament",
          "type": "address"
        }
      ],
      "name": "NewTestamentCreated",
      "type": "event"
    },
    {
      "inputs": [
        {
          "internalType": "address",
          "name": "_claimer",
          "type": "address"
        },
        {
          "components": [
            {
              "internalType": "address",
              "name": "inheritorAddress",
              "type": "address"
            },
            {
              "internalType": "uint8",
              "name": "inheritedPercentage",
              "type": "uint8"
            },
            {
              "internalType": "bool",
              "name": "claimer",
              "type": "bool"
            }
          ],
          "internalType": "struct Testament.Inheritor[]",
          "name": "_inheritors",
          "type": "tuple[]"
        },
        {
          "internalType": "uint16",
          "name": "_maxDays",
          "type": "uint16"
        }
      ],
      "name": "writeTestament",
      "outputs": [
        {
          "internalType": "address",
          "name": "",
          "type": "address"
        }
      ],
      "stateMutability": "nonpayable",
      "type": "function"
    }
  ],
  "bytecode": "0x608060405234801561001057600080fd5b5061216c806100206000396000f3fe60806040523480156200001157600080fd5b50600436106200002e5760003560e01c8063d18ca10b1462000033575b600080fd5b6200005160048036038101906200004b91906200040c565b62000069565b6040516200006091906200049d565b60405180910390f35b60008033868686866040516200007f90620002e2565b6200008f959493929190620006e0565b604051809103906000f080158015620000ac573d6000803e3d6000fd5b509050806000803373ffffffffffffffffffffffffffffffffffffffff1673ffffffffffffffffffffffffffffffffffffffff16815260200190815260200160002060006101000a81548173ffffffffffffffffffffffffffffffffffffffff021916908373ffffffffffffffffffffffffffffffffffffffff160217905550600160008773ffffffffffffffffffffffffffffffffffffffff1673ffffffffffffffffffffffffffffffffffffffff168152602001908152602001600020819080600181540180825580915050600190039060005260206000200160009091909190916101000a81548173ffffffffffffffffffffffffffffffffffffffff021916908373ffffffffffffffffffffffffffffffffffffffff1602179055507fc3914f5d271e4232e404fd350ca8b658a4a1e718af9d0fb6d3b483300a69902b81604051620001fd91906200049d565b60405180910390a162000210816200021c565b80915050949350505050565b620002b6816040516024016200023391906200049d565b6040516020818303038152906040527f2c2ecbc2000000000000000000000000000000000000000000000000000000007bffffffffffffffffffffffffffffffffffffffffffffffffffffffff19166020820180517bffffffffffffffffffffffffffffffffffffffffffffffffffffffff8381831617835250505050620002b9565b50565b60008151905060006a636f6e736f6c652e6c6f679050602083016000808483855afa5050505050565b611a00806200073783390190565b600080fd5b600080fd5b600073ffffffffffffffffffffffffffffffffffffffff82169050919050565b60006200032782620002fa565b9050919050565b62000339816200031a565b81146200034557600080fd5b50565b60008135905062000359816200032e565b92915050565b600080fd5b600080fd5b600080fd5b60008083601f8401126200038757620003866200035f565b5b8235905067ffffffffffffffff811115620003a757620003a662000364565b5b602083019150836060820283011115620003c657620003c562000369565b5b9250929050565b600061ffff82169050919050565b620003e681620003cd565b8114620003f257600080fd5b50565b6000813590506200040681620003db565b92915050565b60008060008060608587031215620004295762000428620002f0565b5b6000620004398782880162000348565b945050602085013567ffffffffffffffff8111156200045d576200045c620002f5565b5b6200046b878288016200036e565b935093505060406200048087828801620003f5565b91505092959194509250565b62000497816200031a565b82525050565b6000602082019050620004b460008301846200048c565b92915050565b600082825260208201905092915050565b6000819050919050565b6000620004e6602084018462000348565b905092915050565b620004f9816200031a565b82525050565b600060ff82169050919050565b6200051781620004ff565b81146200052357600080fd5b50565b60008135905062000537816200050c565b92915050565b60006200054e602084018462000526565b905092915050565b6200056181620004ff565b82525050565b60008115159050919050565b6200057e8162000567565b81146200058a57600080fd5b50565b6000813590506200059e8162000573565b92915050565b6000620005b560208401846200058d565b905092915050565b620005c88162000567565b82525050565b60608201620005e16000830183620004d5565b620005f06000850182620004ee565b506200060060208301836200053d565b6200060f602085018262000556565b506200061f6040830183620005a4565b6200062e6040850182620005bd565b50505050565b6000620006428383620005ce565b60608301905092915050565b600082905092915050565b6000606082019050919050565b6000620006748385620004ba565b93506200068182620004cb565b8060005b85811015620006c2576200069a82846200064e565b620006a6888262000634565b9750620006b38362000659565b92505060018101905062000685565b5085925050509392505050565b620006da81620003cd565b82525050565b6000608082019050620006f760008301886200048c565b6200070660208301876200048c565b81810360408301526200071b81858762000666565b90506200072c6060830184620006cf565b969550505050505056fe60806040523480156200001157600080fd5b5060405162001a0038038062001a0083398181016040528101906200003791906200056d565b600160008190555033600160006101000a81548173ffffffffffffffffffffffffffffffffffffffff021916908373ffffffffffffffffffffffffffffffffffffffff16021790555083600260006101000a81548173ffffffffffffffffffffffffffffffffffffffff021916908373ffffffffffffffffffffffffffffffffffffffff16021790555082600360006101000a81548173ffffffffffffffffffffffffffffffffffffffff021916908373ffffffffffffffffffffffffffffffffffffffff16021790555080600360146101000a81548161ffff021916908361ffff160217905550426004819055506000600560006101000a81548160ff021916908360028111156200014f576200014e620005fe565b5b021790555060005b8251811015620002465760068382815181106200017957620001786200062d565b5b60200260200101519080600181540180825580915050600190039060005260206000200160009091909190915060008201518160000160006101000a81548173ffffffffffffffffffffffffffffffffffffffff021916908373ffffffffffffffffffffffffffffffffffffffff16021790555060208201518160000160146101000a81548160ff021916908360ff16021790555060408201518160000160156101000a81548160ff021916908315150217905550505080806200023d9062000695565b91505062000157565b5050505050620006e3565b6000604051905090565b600080fd5b600080fd5b600073ffffffffffffffffffffffffffffffffffffffff82169050919050565b6000620002928262000265565b9050919050565b620002a48162000285565b8114620002b057600080fd5b50565b600081519050620002c48162000299565b92915050565b600080fd5b6000601f19601f8301169050919050565b7f4e487b7100000000000000000000000000000000000000000000000000000000600052604160045260246000fd5b6200031a82620002cf565b810181811067ffffffffffffffff821117156200033c576200033b620002e0565b5b80604052505050565b60006200035162000251565b90506200035f82826200030f565b919050565b600067ffffffffffffffff821115620003825762000381620002e0565b5b602082029050602081019050919050565b600080fd5b600080fd5b600060ff82169050919050565b620003b5816200039d565b8114620003c157600080fd5b50565b600081519050620003d581620003aa565b92915050565b60008115159050919050565b620003f281620003db565b8114620003fe57600080fd5b50565b6000815190506200041281620003e7565b92915050565b60006060828403121562000431576200043062000398565b5b6200043d606062000345565b905060006200044f84828501620002b3565b60008301525060206200046584828501620003c4565b60208301525060406200047b8482850162000401565b60408301525092915050565b60006200049e620004988462000364565b62000345565b90508083825260208201905060608402830185811115620004c457620004c362000393565b5b835b81811015620004f15780620004dc888262000418565b845260208401935050606081019050620004c6565b5050509392505050565b600082601f830112620005135762000512620002ca565b5b81516200052584826020860162000487565b91505092915050565b600061ffff82169050919050565b62000547816200052e565b81146200055357600080fd5b50565b60008151905062000567816200053c565b92915050565b600080600080608085870312156200058a57620005896200025b565b5b60006200059a87828801620002b3565b9450506020620005ad87828801620002b3565b935050604085015167ffffffffffffffff811115620005d157620005d062000260565b5b620005df87828801620004fb565b9250506060620005f28782880162000556565b91505092959194509250565b7f4e487b7100000000000000000000000000000000000000000000000000000000600052602160045260246000fd5b7f4e487b7100000000000000000000000000000000000000000000000000000000600052603260045260246000fd5b7f4e487b7100000000000000000000000000000000000000000000000000000000600052601160045260246000fd5b6000819050919050565b6000620006a2826200068b565b91507fffffffffffffffffffffffffffffffffffffffffffffffffffffffffffffffff821415620006d857620006d76200065c565b5b600182019050919050565b61130d80620006f36000396000f3fe608060405234801561001057600080fd5b50600436106100415760003560e01c80632b445d7814610046578063aef09e3a14610050578063d48bfca71461005a575b600080fd5b61004e610076565b005b610058610523565b005b610074600480360381019061006f91906109ae565b6105a8565b005b600260005414156100bc576040517f08c379a00000000000000000000000000000000000000000000000000000000081526004016100b390610a38565b60405180910390fd5b60026000819055503373ffffffffffffffffffffffffffffffffffffffff16600360009054906101000a900473ffffffffffffffffffffffffffffffffffffffff1673ffffffffffffffffffffffffffffffffffffffff1614610154576040517f08c379a000000000000000000000000000000000000000000000000000000000815260040161014b90610aa4565b60405180910390fd5b60028081111561016757610166610ac4565b5b600560009054906101000a900460ff16600281111561018957610188610ac4565b5b14156101ca576040517f08c379a00000000000000000000000000000000000000000000000000000000081526004016101c190610b65565b60405180910390fd5b600042905062015180600360149054906101000a900461ffff1661ffff166101f29190610bc3565b62ffffff166004546102049190610c0a565b8110610236576001600560006101000a81548160ff021916908360028111156102305761022f610ac4565b5b02179055505b6000600281111561024a57610249610ac4565b5b600560009054906101000a900460ff16600281111561026c5761026b610ac4565b5b14156102ad576040517f08c379a00000000000000000000000000000000000000000000000000000000081526004016102a490610cac565b60405180910390fd5b60005b6007805490508110156104a6576000600782815481106102d3576102d2610ccc565b5b9060005260206000200160009054906101000a900473ffffffffffffffffffffffffffffffffffffffff169050600081905060008173ffffffffffffffffffffffffffffffffffffffff1663dd62ed3e84306040518363ffffffff1660e01b8152600401610342929190610d0a565b602060405180830381865afa15801561035f573d6000803e3d6000fd5b505050506040513d601f19601f820116820180604052508101906103839190610d5f565b90506002600560006101000a81548160ff021916908360028111156103ab576103aa610ac4565b5b021790555060005b60068054905081101561048f5760006064600683815481106103d8576103d7610ccc565b5b9060005260206000200160000160149054906101000a900460ff1660ff16846104019190610d8c565b61040b9190610e15565b905061047b856006848154811061042557610424610ccc565b5b9060005260206000200160000160009054906101000a900473ffffffffffffffffffffffffffffffffffffffff16838773ffffffffffffffffffffffffffffffffffffffff16610645909392919063ffffffff16565b50808061048790610e46565b9150506103b3565b50505050808061049e90610e46565b9150506102b0565b507f3d3f5f390e75dbf57afc00b4b113e0e7006e5ad37074197dcbf769e4bcd97c4f600260009054906101000a900473ffffffffffffffffffffffffffffffffffffffff16600680549050600560009054906101000a900460ff1660405161051093929190610ef3565b60405180910390a1506001600081905550565b4260048190555060004262015180600360149054906101000a900461ffff1661ffff166105509190610bc3565b62ffffff166004546105629190610c0a565b61056c9190610f2a565b90507f43e6648706999a361948714899a065085b7c145659f3df2563b33fa34479eba68160405161059d9190610f6d565b60405180910390a150565b6007819080600181540180825580915050600190039060005260206000200160009091909190916101000a81548173ffffffffffffffffffffffffffffffffffffffff021916908373ffffffffffffffffffffffffffffffffffffffff1602179055507f784c8f4dbf0ffedd6e72c76501c545a70f8b203b30a26ce542bf92ba87c248a48160405161063a9190610f88565b60405180910390a150565b6106c8846323b872dd60e01b85858560405160240161066693929190610fa3565b604051602081830303815290604052907bffffffffffffffffffffffffffffffffffffffffffffffffffffffff19166020820180517bffffffffffffffffffffffffffffffffffffffffffffffffffffffff83818316178352505050506106ce565b50505050565b6000610730826040518060400160405280602081526020017f5361666545524332303a206c6f772d6c6576656c2063616c6c206661696c65648152508573ffffffffffffffffffffffffffffffffffffffff166107959092919063ffffffff16565b905060008151111561079057808060200190518101906107509190611012565b61078f576040517f08c379a0000000000000000000000000000000000000000000000000000000008152600401610786906110b1565b60405180910390fd5b5b505050565b60606107a484846000856107ad565b90509392505050565b6060824710156107f2576040517f08c379a00000000000000000000000000000000000000000000000000000000081526004016107e990611143565b60405180910390fd5b6107fb856108c1565b61083a576040517f08c379a0000000000000000000000000000000000000000000000000000000008152600401610831906111af565b60405180910390fd5b6000808673ffffffffffffffffffffffffffffffffffffffff1685876040516108639190611249565b60006040518083038185875af1925050503d80600081146108a0576040519150601f19603f3d011682016040523d82523d6000602084013e6108a5565b606091505b50915091506108b58282866108e4565b92505050949350505050565b6000808273ffffffffffffffffffffffffffffffffffffffff163b119050919050565b606083156108f457829050610944565b6000835111156109075782518084602001fd5b816040517f08c379a000000000000000000000000000000000000000000000000000000000815260040161093b91906112b5565b60405180910390fd5b9392505050565b600080fd5b600073ffffffffffffffffffffffffffffffffffffffff82169050919050565b600061097b82610950565b9050919050565b61098b81610970565b811461099657600080fd5b50565b6000813590506109a881610982565b92915050565b6000602082840312156109c4576109c361094b565b5b60006109d284828501610999565b91505092915050565b600082825260208201905092915050565b7f5265656e7472616e637947756172643a207265656e7472616e742063616c6c00600082015250565b6000610a22601f836109db565b9150610a2d826109ec565b602082019050919050565b60006020820190508181036000830152610a5181610a15565b9050919050565b7f5468652061646472657373206973206e6f74206120636c61696d657200000000600082015250565b6000610a8e601c836109db565b9150610a9982610a58565b602082019050919050565b60006020820190508181036000830152610abd81610a81565b9050919050565b7f4e487b7100000000000000000000000000000000000000000000000000000000600052602160045260246000fd5b7f54686520686572697461676520686173206265656e20616c726561647920696e60008201527f686572697465642e000000000000000000000000000000000000000000000000602082015250565b6000610b4f6028836109db565b9150610b5a82610af3565b604082019050919050565b60006020820190508181036000830152610b7e81610b42565b9050919050565b600062ffffff82169050919050565b7f4e487b7100000000000000000000000000000000000000000000000000000000600052601160045260246000fd5b6000610bce82610b85565b9150610bd983610b85565b92508162ffffff0483118215151615610bf557610bf4610b94565b5b828202905092915050565b6000819050919050565b6000610c1582610c00565b9150610c2083610c00565b9250827fffffffffffffffffffffffffffffffffffffffffffffffffffffffffffffffff03821115610c5557610c54610b94565b5b828201905092915050565b7f546865206163636f756e74206973206163746976650000000000000000000000600082015250565b6000610c966015836109db565b9150610ca182610c60565b602082019050919050565b60006020820190508181036000830152610cc581610c89565b9050919050565b7f4e487b7100000000000000000000000000000000000000000000000000000000600052603260045260246000fd5b610d0481610970565b82525050565b6000604082019050610d1f6000830185610cfb565b610d2c6020830184610cfb565b9392505050565b610d3c81610c00565b8114610d4757600080fd5b50565b600081519050610d5981610d33565b92915050565b600060208284031215610d7557610d7461094b565b5b6000610d8384828501610d4a565b91505092915050565b6000610d9782610c00565b9150610da283610c00565b9250817fffffffffffffffffffffffffffffffffffffffffffffffffffffffffffffffff0483118215151615610ddb57610dda610b94565b5b828202905092915050565b7f4e487b7100000000000000000000000000000000000000000000000000000000600052601260045260246000fd5b6000610e2082610c00565b9150610e2b83610c00565b925082610e3b57610e3a610de6565b5b828204905092915050565b6000610e5182610c00565b91507fffffffffffffffffffffffffffffffffffffffffffffffffffffffffffffffff821415610e8457610e83610b94565b5b600182019050919050565b600060ff82169050919050565b610ea581610e8f565b82525050565b60038110610ebc57610ebb610ac4565b5b50565b6000819050610ecd82610eab565b919050565b6000610edd82610ebf565b9050919050565b610eed81610ed2565b82525050565b6000606082019050610f086000830186610cfb565b610f156020830185610e9c565b610f226040830184610ee4565b949350505050565b6000610f3582610c00565b9150610f4083610c00565b925082821015610f5357610f52610b94565b5b828203905092915050565b610f6781610c00565b82525050565b6000602082019050610f826000830184610f5e565b92915050565b6000602082019050610f9d6000830184610cfb565b92915050565b6000606082019050610fb86000830186610cfb565b610fc56020830185610cfb565b610fd26040830184610f5e565b949350505050565b60008115159050919050565b610fef81610fda565b8114610ffa57600080fd5b50565b60008151905061100c81610fe6565b92915050565b6000602082840312156110285761102761094b565b5b600061103684828501610ffd565b91505092915050565b7f5361666545524332303a204552433230206f7065726174696f6e20646964206e60008201527f6f74207375636365656400000000000000000000000000000000000000000000602082015250565b600061109b602a836109db565b91506110a68261103f565b604082019050919050565b600060208201905081810360008301526110ca8161108e565b9050919050565b7f416464726573733a20696e73756666696369656e742062616c616e636520666f60008201527f722063616c6c0000000000000000000000000000000000000000000000000000602082015250565b600061112d6026836109db565b9150611138826110d1565b604082019050919050565b6000602082019050818103600083015261115c81611120565b9050919050565b7f416464726573733a2063616c6c20746f206e6f6e2d636f6e7472616374000000600082015250565b6000611199601d836109db565b91506111a482611163565b602082019050919050565b600060208201905081810360008301526111c88161118c565b9050919050565b600081519050919050565b600081905092915050565b60005b838110156112035780820151818401526020810190506111e8565b83811115611212576000848401525b50505050565b6000611223826111cf565b61122d81856111da565b935061123d8185602086016111e5565b80840191505092915050565b60006112558284611218565b915081905092915050565b600081519050919050565b6000601f19601f8301169050919050565b600061128782611260565b61129181856109db565b93506112a18185602086016111e5565b6112aa8161126b565b840191505092915050565b600060208201905081810360008301526112cf818461127c565b90509291505056fea2646970667358221220121cafaa3218ea4216bbdb1c942c839c2012485ae7f619d101ce039a0393eb7c64736f6c634300080b0033a2646970667358221220771bcbec297a71870913f19552480d3eba8e4c7ad3810c918b6d1095f9f62b8c64736f6c634300080b0033",
  "linkReferences": {},
  "deployedLinkReferences": {}
}